:020000040800F2
:1000000000C001202D3E0008353D000831110008D8
:100010006D110008A9110008E5110008000000009A
:10002000000000000000000000000000591200085D
:100030003D3D000800000000230D000845160008A3
:100040007D3E00087D3E00087D3E00087D3E0008A4
:100050007D3E00087D3E00087D3E00087D3E000894
:100060007D3E00087D3E00087D3E00084D3D0008B5
:10007000613D00087D3E0008753D00087D3E00089A
:100080007D3E00087D3E00087D3E00087D3E000864
:100090007D3E00087D3E00087D3E00087D3E000854
:1000A0007D3E00087D3E00087D3E00087D3E000844
:1000B0007D3E00087D3E00087D3E00087D3E000834
:1000C0007D3E00087D3E00087D3E00087D3E000824
:1000D0007D3E0008893D00087D3E00087D3E000809
:1000E0007D3E00087D3E00087D3E00087D3E000804
:1000F0007D3E00087D3E00087D3E00087D3E0008F4
:10010000000000007D3E0008000000007D3E000869
:100110007D3E00087D3E00087D3E00087D3E0008D3
:100120007D3E00087D3E00087D3E00087D3E0008C3
:100130007D3E000800000000000000007D3E000839
:100140007D3E00087D3E0008000000000000000029
:10015000000000000000000000000000000000009F
:100160000000000000000000000000007D3E0008CC
:100170007D3E00087D3E00087D3E00087D3E000873
:100180007D3E00087D3E00080000000000000000E9
:1001900000000000000000007D3E00087D3E0008D9
:1001A00000000000000000007D3E00087D3E0008C9
:1001B0007D3E00087D3E00087D3E00087D3E000833
:1001C0007D3E00087D3E00087D3E00087D3E000823
:0801D0007D3E00087D3E0008A1
:1001E000415F6F730000000000000000000000008D
:1001F00000000000000000000000000000000000FF
:1002000076323032342E31302E3030000000000093
:1002100000000000000000000000000000000000DE
:100220006C77697000000000000000000000000012
:1002300000000000000000000000000000000000BE
:10024000535441424C452D322E322E3000000000D6
:10025000000000000000000000000000000000009E
:100260004D656D6272616E652D5753656E736F7269
:100270005F303200000000000000000000000000BD
:1002800076323032342E31302E3030000000000013
:10029000000000000000000000000000000000005E
:1002A00010B5054C237833B9044B13B10448AFF3B0
:1002B00000800123237010BDE00300200000000037
:1002C000B4C0000808B5034B1BB103490348AFF3A2
:1002D000008008BD00000000E4030020B4C0000856
:1002E000034613F8012B002AFBD1181A0138704776
:1002F00001F0FF01102A2BDB10F0070F08D010F8D7
:10030000013B013A8B422DD010F0070F42B3F6D1DA
:10031000F0B441EA012141EA014122F007047FF0F3
:1003200000070023F0E80256083C85EA010586EA4A
:10033000010685FA47F5A3FA87F586FA47F6A5FA86
:1003400087F68EB9EED1F0BC01F0FF0102F0070292
:1003500032B110F8013B013A83EA010313B1F8D13D
:100360000020704701387047002D06BF354603381E
:10037000073815F0010F07D1013015F4807F02BF57
:10038000013015F4C03F0130F0BC0138704700BFA8
:1003900053B94AB9002908BF00281CBF4FF0FF31EC
:1003A0004FF0FF3000F06AB9ADF1080C6DE904CEF2
:1003B00000F006F8DDF804E0DDE9022304B0704740
:1003C0002DE9F047089D0C46002B4ED194468C45F4
:1003D0008646B2FA82F262D94AB1C2F12003914054
:1003E00020FA03F30CFA02FC194300FA02FE4FEA6A
:1003F0001C471FFA8CF6B1FBF7F44FEA1E4307FBCC
:10040000141143EA014304FB06F199420AD91CEB9B
:10041000030304F1FF3080F01281994240F20F8112
:10042000023C6344591A1FFA8EF3B1FBF7F007FB45
:10043000101143EA014300FB06F69E420AD91CEB69
:10044000030300F1FF3180F0FC809E4240F2F9800E
:10045000634402389B1B40EA044000211DB1D34095
:100460000022C5E90032BDE8F0878B4205D90DB105
:10047000C5E9000100210846F5E7B3FA83F1002938
:1004800046D1A34202D39042C0F0F080861A64EBBA
:1004900003030120002DE6D0C5E90063E3E7002A4D
:1004A00040F09080A1EB0C044FEA1C481FFA8CF737
:1004B0000121B4FBF8F64FEA1E4308FB164443EA59
:1004C000044307FB06F0984208D91CEB030306F12E
:1004D000FF3402D2984200F2CD8026461C1A1FFA41
:1004E0008EF3B4FBF8F008FB104443EA044300FB2E
:1004F00007F79F4208D91CEB030300F1FF3402D237
:100500009F4200F2B0802046DB1B40EA0640A5E790
:10051000C1F120068B4022FA06F71F4320FA06FCA1
:1005200004FA01F343EA0C03F44000FA01F8380C32
:100530004FEA1349B4FBF0FE1FFA87FC00FB1E4490
:1005400049EA04440EFB0CF9A14502FA01F20AD96A
:100550003C190EF1FF3A80F08480A14540F2818081
:10056000AEF1020E3C44A4EB09041FFA83F9B4FB7C
:10057000F0F300FB134449EA044403FB0CFCA445DC
:1005800007D93C1903F1FF3067D2A44565D9023B76
:100590003C4443EA0E40A0FB0293A4EB0C049C42B3
:1005A000CE469C4651D34ED055B1B8EB0E0364EB0A
:1005B0000C0404FA06F6CB401E43CC40C5E90064A7
:1005C000002150E7C2F1200320FA03F10CFA02FCEB
:1005D00024FA03F394400C434FEA1C4800FA02FE4D
:1005E0001FFA8CF7B3FBF8F008FB1031230C43EA39
:1005F000014300FB07F1994208D91CEB030300F10A
:10060000FF362CD299422AD9023863445B1AA4B22D
:10061000B3FBF8F108FB113344EA034401FB07F391
:10062000A34208D91CEB040401F1FF3613D2A34204
:1006300011D902396444E41A41EA004139E7044619
:10064000F0E6084606E7C845AED2B9EB020E63EB0A
:10065000070C0138A8E73146EDE7034699E7304635
:10066000D4E7D6467FE7634402384DE70646234683
:1006700008460FE7023E634430E700BF704700BF03
:1006800080B584B000AF0346B9607A60FB7323483D
:1006900006F01BFC214806F0E7FBFA7B20491346D5
:1006A0009B0013449B000B441A781E4B93F8353083
:1006B0009A4201D001232CE0FB7B192B12D17F2120
:1006C000194804F03BFF0346002B01D0022320E031
:1006D0007A68B968144804F04BF80346002B01D03F
:1006E000022316E0FB7B1A2B12D17F210F4804F066
:1006F00025FF0346002B01D002230AE07A68B9687F
:100700000A4804F035F80346002B01D0022300E02C
:10071000002318461037BD4680BD00BFC00D002025
:100720002044002000400020F00B00205C0C002042
:1007300080B582B000AF0346FB71FB79192B04D161
:10074000084807F0DFFD034608E0FB791A2B04D1C7
:10075000054807F0D7FD034600E002231846083796
:10076000BD4680BD380E0020840E002080B582B0CA
:1007700000AF0346FB71FB79192B04D1084807F041
:1007800029FE034608E0FB791A2B04D1054807F03F
:1007900021FE034600E0022318460837BD4680BD0F
:1007A000380E0020840E002080B582B000AF786043
:1007B0007B680E4A934208D10D4B93F8F43119220D
:1007C0004FF00071184600F0A9FB7B68094A93427C
:1007D00008D1074B93F808321A224FF0806118466F
:1007E00000F09CFB00BF0837BD4680BDF00B002029
:1007F000204400205C0C002080B483B000AF03468E
:100800003960FB7197F90730002B0ADB3B68DAB2DD
:100810000C4997F907301201D2B20B4483F8002338
:100820000AE03B68DAB20849FB7903F00F03043BA6
:100830001201D2B20B441A7600BF0C37BD465DF8E8
:10084000047B704700E100E000ED00E080B582B07D
:1008500000AF78607B68013BB3F1807F01D3012357
:100860000FE00A4A7B68013B53600F214FF0FF30D5
:10087000FFF7C2FF054B00229A60044B07221A6063
:10088000002318460837BD4680BD00BF10E000E0D9
:1008900080F30888704700BF60486149B0F80CC019
:1008A0002DE9784183885F4CDFF884E1DFF88481AB
:1008B000A1F50066A1F58051CD1AF218838A808BCC
:1008C000C4F8B01062441A44A5EB0C0CACEB030363
:1008D0000244CEE90061521ACEF81030181AC4F85A
:1008E000C03200210123CEE9025C2660C4F86051C9
:1008F000C4F810C2237284F8B83084F8683184F8E0
:10090000183284F8C8320AF0DBFA2268464BDFF866
:1009100028E1DFF828C1454DC4F8AC30C4F85C814B
:10092000C4F80CE2C4F8BCC2C4F86C53164642F8D2
:10093000083C002342E9053342E907334FF0807059
:1009400042E909336FF0020142E90B3342E90D330A
:1009500042E90F3342F8040C42F80C1C46F8403DC3
:10096000D4F8B020266042E9028042E9043142E92D
:10097000063342E9083342E90A3342E90C3342E9DB
:100980000E3342F83C3C42F8403DC4F8B020D4F865
:10099000602142E902E042E9043142E9063342E9DA
:1009A000083342E90A3342E90C3342E90E3342F894
:1009B0003C3C42F8403DC4F86021D4F8102242E9A2
:1009C00002C042E9043142E9063342E9083342E910
:1009D0000A3342E90C3342E90E3342F83C3C42F818
:1009E000403DC4F81022D4F8C02242F8040C10464E
:1009F00042E9043142E9063342E9083342E90A3365
:100A000042E90C3342E90E3342F8085C42F83C3CC0
:100A100040F8403DC4F8C002BDE8788114000020D1
:100A200000800020A040002075100008051100087B
:100A3000FC03002081100008AD100008D910000848
:100A400008B5054BB3FBF0F00138FFF7FFFE034B91
:100A50000122DA6008BD00BF80FE210A00400020AC
:100A600004480549054B091A8910C3E9000100F043
:100A7000F7BB00BF004000200080002000400020A5
:100A8000064B5A6A42F480325A625A6A42F4003281
:100A90005A625A6A42F480225A62704700ED00E0BE
:100AA00008B500220F216FF0010004F090FFBDE8AF
:100AB000084000220C214FF0FF3004F088BF00BF37
:100AC00070B5084D04466E6807F00AF9064BA3FBA3
:100AD00000239B0C621E03FB02F26B689B1B93427C
:100AE000FBD370BD001000E083DE1B430F4A104BA8
:100AF000D2F8FC1021F08071C2F8FC10D2F8FC1082
:100B000041F08071C2F8FC101A6822F001021A60EC
:100B10001A68002042F001021A60586000BF00BF4E
:100B200000BF5868B0FA80F04009704700ED00E05F
:100B3000001000E001F0A4B810B5022003F004FAA0
:100B4000124B134C07CB20606160A260FFF7F2FFED
:100B500000F0FAFD72B6FFF7C9FF00F0F7FDFFF7EE
:100B60008FFFFFF79DFF0B48FFF792FEFFF794FE04
:100B70004FF47A70FFF764FF00F0EAFD00F0C4F86C
:100B800062B6BDE8104000F075BA00BF84C100082D
:100B90005B4000200080002080B483B000AF03469B
:100BA0000A46FB711346BB7172B600BF204AFB793F
:100BB0001370FB791F2B01D9002332E0FA791D490C
:100BC00013469B0013449B000B441B78002B01D061
:100BD000002326E0FA79184B93F83500154913469F
:100BE0009B0013449B000B4402461A70FA79BB79B0
:100BF00043F00103D8B20F4913469B0013449B00F6
:100C00000B44013302461A70FA790A4913469B00D5
:100C100013449B000B44103300221A6062B600BFDD
:100C2000FB7918460C37BD465DF8047B704700BF62
:100C3000100400202044002000400020072900D993
:100C4000704770B50F4C4FF0B00E0EFB004E2C25C8
:100C500005FB001C01269EF8515006FA01F12943BC
:100C60008EF851100CF104010CF10C0C44F8212009
:100C700044F82C304FF08042BDE87040082100F06D
:100C80004DB900BFA0400020072812D82DE9F0413F
:100C90001B4F1C4E97F83520B02505FB0263044618
:100CA00093F85130034113F0010304D11846BDE815
:100CB000F081002070474FF02C0808FB0242131D02
:100CC000084602F10C0156F8212056F823100AF0CC
:100CD0002BF997F8353005FB036508FB03430C330C
:100CE000012156F8230095F851306A6DA14023EA9E
:100CF000010322F0080285F851306A65BDE8F081F1
:100D000000400020A040002000B500F079F880F3FA
:100D100009885DF804EB4FF0020080F314887047F7
:100D200000BFEFF3098020E9F00F00B500F07EF876
:100D300000F096F800F064F8B0E8F00F80F309884E
:100D40005DF804EB704700BF80B400AF074B5B68F1
:100D5000064A43F080535360BFF34F8F00BF62B623
:100D600000BF00BFBD465DF8047B704700ED00E0AA
:100D700080B582B000AF786072B600BF1E4B93F8AA
:100D8000353019461D4AB02301FB03F313440C33DD
:100D90007A681A60184B93F835301946174AB02311
:100DA00001FB03F3134454331A687B681340002B90
:100DB0001CD1114B93F835301946104AB02301FB72
:100DC00003F3134408331B780B4A92F8352010467E
:100DD00023F00103D9B2094AB02300FB03F3134403
:100DE00008330A461A70FFF7AFFF01E062B600BF92
:100DF00000BF0837BD4680BD00400020A040002055
:100E000080B400AF074B93F835301946064AB0233B
:100E100001FB03F313441B681846BD465DF8047BD1
:100E2000704700BF00400020A040002080B483B085
:100E300000AF7860084B93F835301946074AB02365
:100E400001FB03F313447A681A6000BF0C37BD46F8
:100E50005DF8047B704700BF00400020A0400020E8
:100E600080B483B000AF00237B6000233B6039E097
:100E7000274B93F835300133DAB2254B83F8352010
:100E8000234B93F83520234BA3FB021399080B4601
:100E90009B000B44D31ADAB21D4B83F835201C4B50
:100EA00093F83530002B2CD0194B93F83530194678
:100EB000194AB02301FB03F3134408331B787B600A
:100EC0007B6803F08003002B09D17B6803F00103EA
:100ED000002B04D00E4B93F83530002B06D13B6825
:100EE00001333B603B68042BC2DD00E000BF7B6840
:100EF00003F00103002B05D1054B002283F83520B8
:100F000000E000BF0C37BD465DF8047B704700BFB2
:100F100000400020CDCCCCCCA040002080B485B0D7
:100F200000AF0346B9607A60FB73FB7B2A4AB021AD
:100F300001FB03F3134408331B785BB2002B44DB43
:100F400072B600BFFB7B244AB02101FB03F31344BC
:100F500054331968FB7BBA680A431F49B02000FB71
:100F600003F30B4454331A60FB7B1B4AB02101FB93
:100F700003F3134458331968FB7B7A680A43164914
:100F8000B02000FB03F30B4458331A60FB7B124A7A
:100F9000B02101FB03F31344083300221A70FB7BDA
:100FA0000D4AB02101FB03F3134408331A78FB7B8D
:100FB00042F00102D0B2084AB02101FB03F313440E
:100FC000083302461A7062B600BF00231846143771
:100FD000BD465DF8047B7047A040002080B483B01C
:100FE00000AF7860396072B600BF204B93F835309F
:100FF00019461F4AB02301FB03F3134454331A6804
:101000007B681A60194B93F835301946184AB0239B
:1010100001FB03F3134458331A683B681A60134BFF
:1010200093F835301249B02203FB02F20A445832D9
:10103000002111600D4A92F8352010460C4AB0216B
:1010400001FB03F3134458331A680949B02300FB2A
:1010500003F30B4454331A6062B600BF00231846F2
:101060000C37BD465DF8047B704700BF0040002090
:10107000A040002008B500F065FBFFF765FEFAE729
:1010800008B5074B01201B689847064A064B92F8A3
:101090003520B02101FB0233C0221A72FEE700BFE7
:1010A0001400002000400020A040002008B5074B9D
:1010B00002209B689847064A064B92F83520B021DB
:1010C00001FB0233C0221A72FEE700BF14000020A9
:1010D00000400020A040002008B5074B03201B69FA
:1010E0009847064A064B92F83520B02101FB02339F
:1010F000C0221A72FEE700BF14000020004000204A
:10110000A040002008B5074B04209B699847064A79
:10111000064B92F83520B02101FB0233C0221A722F
:10112000FEE700BF1400002000400020A040002087
:101130000C4B0D4A93F8351083F836104FF0B00C75
:101140000CFB012258184FF0A00C82F808C090F850
:1011500045204FF0200C013283F837C080F845203D
:10116000FFF7F2BD00400020A04000200C4B0D4ACC
:1011700093F8351083F836104FF0B00C0CFB0122B9
:1011800058184FF0900C82F808C090F84F204FF09C
:10119000200C013283F837C080F84F20FFF7D4BD10
:1011A00000400020A04000200C4B0D4A93F8351061
:1011B00083F836104FF0B00C0CFB012258184FF09A
:1011C000880C82F808C090F84A204FF0200C0132B9
:1011D00083F837C080F84A20FFF7B6BD00400020F2
:1011E000A04000200C4B0D4A93F8351083F83610C0
:1011F0004FF0B00C0CFB012258184FF0840C82F811
:1012000008C090F854204FF0200C013283F837C00A
:1012100080F85420FFF798BD00400020A040002037
:101220008818704738B58369044613F8020C1038E3
:10123000C3B2032B08D8064AA36852F82050D4E959
:101240000012A847206038BD0248206038BD00BFAA
:1012500000000020EFBEADDEEFF30980FFF7E2BF34
:1012600080B485B000AF786039600023FB6008E08F
:10127000FB689B007A68134400221A60FB68013304
:10128000FB60FA683B689A42F2D300BF00BF143794
:10129000BD465DF8047B704772B605480549826813
:1012A0000B680132013382600B6062B6704700BF89
:1012B0000040002018100020034BDA680AB198683B
:1012C0007047024B1868704700400020181000203B
:1012D000F8B5C64CC64F0125D4F8BC309A07EEB21B
:1012E00004D5B968D4F8B42091423FD2580705D448
:1012F0000135052D04F1B004EED1F8BD94F950315B
:1013000094F85021002B73DB94F9513194F851215A
:10131000002B56DB94F9523194F85221002B5EDBFE
:1013200094F9533194F85321002B41DB94F9543153
:1013300094F85421002B32DB94F9553194F855215F
:10134000002B23DB94F9563194F85621002B15DB42
:1013500094F9573194F85721002BC9DA9107D4F842
:101360002C314DD40133C4F82C31C1E7022211468F
:101370003046FFF7D3FDD4F8BC30B7E79107D4F877
:1013800028317BD40133C4F82831E1E79107D4F840
:10139000243100F192800133C4F82431D2E791075F
:1013A000D4F8203100F1A8800133C4F82031C3E71C
:1013B0009107D4F81C3100F1DC800133C4F81C31F2
:1013C000B4E79107D4F8143100F1B5800133C4F8C3
:1013D000143194F9523194F85221002BA0DA91077C
:1013E000D4F8183100F1E3800133C4F8183197E7DD
:1013F0009107D4F8103122D40133C4F8103183E7B7
:101400007B4989688B423FF673AF94F8B83043F05C
:10141000010384F8B830D30740F1F180D4F84C319F
:101420000B44C4F82C3194F8583163F07F033046F4
:1014300084F8583180220421FFF770FD58E76C4989
:1014400089689942FFF460AF94F8B830D00743F050
:10145000010384F8B83040F1E680D4F830310B4411
:10146000C4F8103194F8583143F0010384F858312E
:10147000012204213046FFF751FD45E75C498968A8
:101480008B423FF665AF94F8B830D00743F00103C4
:1014900084F8B83040F1D180D4F848310B44C4F816
:1014A000283194F8583143F0400384F858314022F1
:1014B00004213046FFF732FD4AE74D4989688B42E7
:1014C0003FF640AF94F8B830D00743F0010384F8FA
:1014D000B83040F1AD80D4F844310B44C4F8243125
:1014E00094F8583143F0200384F858312022042125
:1014F0003046FFF713FD25E73D4989689942FFF41F
:101500001BAF94F8B830D00743F0010384F8B8302B
:1015100040F18480D4F840310B44C4F8203194F871
:10152000583143F0100384F858311022042130461A
:10153000FFF7F4FC00E72E4989689942FFF4EAAE10
:1015400094F8B830D00743F0010384F8B83060D580
:10155000D4F834310B44C4F8143194F8583143F0C2
:10156000020384F85831022204213046FFF7D6FCEA
:10157000D0E61F4989689942FFF4D8AE94F8B83094
:10158000D00743F0010384F8B8303DD5D4F83C319E
:101590000B44C4F81C3194F8583143F0080384F824
:1015A0005831082204213046FFF7B8FCBEE6104946
:1015B00089689942FFF4B4AE94F8B830D00743F08C
:1015C000010384F8B83015D5D4F838310B44C4F889
:1015D000183194F85831042243F0040384F8583148
:1015E00011463046FFF79AFC9AE600BFA040002063
:1015F0000040002022F0020284F85221E9E722F0A4
:10160000020284F857210EE722F0020284F85321E7
:10161000C1E722F0020284F851219EE722F0020283
:1016200084F854217BE722F0020284F8502119E764
:1016300022F0020284F8552152E722F0020284F8D7
:1016400056212EE708B572B60C4BDB687BB1FFF76D
:1016500023FE0B4B1B6803B19847FFF739FE094B7C
:101660001B6803B19847FFF76FFB62B608BD02F035
:1016700059FC04F0EEF962B608BD00BF004000203E
:10168000100000201404002030B42C4D2C4C95F890
:1016900035304FF0B00C0CFB0343034493F9A030FA
:1016A000002B17DB202818D8A0B101381F2811D82B
:1016B000DFE800F04240103A1010103C10101010FB
:1016C0001010103E101010101010101010101010EC
:1016D00010101038012030BC7047402820D08028DE
:1016E00008BF0723F6D172B695F835C0AD68B020B3
:1016F00000FB0C40184402F00F0262F07F0280F8F9
:10170000A0202C2202FB0C3303F1200218330D44DD
:1017100044F8221044F8235062B6002030BC7047D1
:101720000623E0E70523DEE70223DCE70323DAE70D
:101730000423D8E70123D6E70023D4E700400020A4
:10174000A0400020704700BF704700BF704700BF37
:10175000704700BF08B500EB800C0A4B13F82CC093
:10176000094B93F835309C4509D10438074B00EB01
:10177000800053F8200010B107F078F908BDFF2071
:1017800008BD00BF20440020004000206049002028
:10179000F8B500EB800C204C204D95F835E014F89E
:1017A0002C50754504EB8C0C01D0FF20F8BD051FB3
:1017B00005EB850EACF80E204FEA8E0E9CF801204A
:1017C000CCF808100EF1080E154922F0020200278D
:1017D0008CF80120860021F80E70AA0063B163F333
:1017E0000F0763F31F47DCF8043043F00043CCF8E5
:1017F00004308B1C43F80E702A440644920004EB1C
:101800008603885802F10E0400229A8121440122A5
:1018100007F0E0F8F8BD00BF2044002000400020A1
:101820006049002010B572B63D4C94F85130D8078D
:101830001DD494F86530D90724D494F87930DA07A8
:101840002BD494F88D30DB0732D494F8A130D8072C
:1018500039D494F8B530D90741D494F8C930DA07AF
:1018600048D494F8DD30DB0750D462B610BD1021A7
:1018700094F850004FF40072FFF750FB94F8653075
:10188000D907DAD54FF4007294F864002021FFF7ED
:1018900045FB94F87930DA07D3D594F878004FF403
:1018A00000724021FFF73AFB94F88D30DB07CCD56E
:1018B00094F88C004FF400728021FFF72FFB94F80E
:1018C000A130D807C5D54FF4807194F8A0004FF42B
:1018D0000072FFF723FB94F8B530D907BDD54FF45C
:1018E0000072114694F8B400FFF718FB94F8C93061
:1018F000DA07B6D594F8C8004FF400724FF480614F
:10190000FFF70CFB94F8DD30DB07AED594F8DC0074
:101910004FF400724FF40061FFF700FB62B610BD98
:10192000204400202DE9F84F044672B68A4D2B68FA
:1019300098421AD06B699C4266D0AB6A9C426CD0CC
:10194000EB6B9C4272D02B6D9C4278D06B6E9C42AC
:101950007ED0AB6F9C4200F08580D5F88C30A342DE
:1019600000F08A8062B6BDE8F88F7C4E96F8513060
:10197000DF07DFD54FF00408002708EB880206EBED
:1019800082024FEA880AD2F808C0BCF1000F00F0CA
:101990009C8007EB870105EB810013F0020B90F8A8
:1019A0000EE04FEA81014FEA870900F0938013F0BF
:1019B000040B6BD00AEB080306EB830309EB07016A
:1019C0009A890CF802E09A89D88905EB81010132E5
:1019D00092B2B1F80CC09A819042A1F80AC05ED0D0
:1019E00009EB070305EB83039A7B5B7A9A4200F0CD
:1019F000988009EB070105EB810101220E31204699
:101A000006F0E8FF62B6AEE7544E96F86530D807A8
:101A100093D54FF005080127AFE7504E96F879307F
:101A2000D9078DD54FF006080227A6E74B4E96F84A
:101A30008D30DA0787D54FF0070803279DE7474E1B
:101A400096F8A130DF0781D54FF00808042794E706
:101A5000424E96F8B530D8077FF57BAF4FF00908B6
:101A600005278AE73D4E96F8C930D9077FF575AF4F
:101A70004FF00A08062780E7384E96F8DD30DA077F
:101A80007FF570AF4FF00B08072776E7007A7045B7
:101A90002ED143F00403A2F80CB053708AE75A78B1
:101AA000588022F004025A701A690021998102B10B
:101AB00090470AEB0803012116F8230001FA08F108
:101AC0004FF48072FFF72AFA8AE707EB870705EBE6
:101AD000870192E793890CF803E09389D189013358
:101AE0009BB2994293810BD0B94405EB890184E7FD
:101AF0000E3101222944204606F06CFF62B632E71F
:101B000013695180A2F80CB003B19847C244012177
:101B100016F82A0001FA08F14FF48072FFF7FEF977
:101B2000E2E70AEB080306EB830300215A78988961
:101B3000588022F004025A701A69998102B19047C4
:101B4000C244012116F82A0001FA08F14FF480720C
:101B5000FFF7E4F94DE700BF604900202044002072
:101B6000264B1A68904216D05A69904219D09A6A48
:101B700090421CD0DA6B90421FD01A6D904222D056
:101B80005A6E904225D09A6F904228D0D3F88C207C
:101B900082422DD070471A6901321A615A69904207
:101BA000E5D15A6A01325A629A6A9042E2D19A6B3E
:101BB00001329A63DA6B9042DFD1DA6C0132DA6477
:101BC0001A6D9042DCD11A6E01321A665A6E90423A
:101BD000D9D15A6F01325A679A6F9042D6D1D3F851
:101BE00088200132C3F88820D3F88C208242D1D1DA
:101BF000D3F89C200132C3F89C2070476049002034
:101C000070B51D4C1D4E042594F85130D90707D5E9
:101C1000A36D2BB1B4F85C2012B1616D002907DB14
:101C200001350C2D04F1140406F11406ECD170BD3D
:101C300071890029F4D0013989B271810029EFD16D
:101C4000B089A4F8522070819954236EA4F85C10D6
:101C500003B1984701214FF4A06294F85000A940C5
:101C6000FFF75CF994F851305A0744BF23F004039E
:101C700084F85130D4E700BF2044002060490020A0
:101C8000024B03490422C3E9001270476049002057
:101C90001C0F002080B400AFBFF34F8F00BF064B76
:101CA000DB6803F4E0620449044B1343CB60BFF3E9
:101CB0004F8F00BF00BFFDE700ED00E00400FA0514
:101CC00080B582B000AF78603960074B1B684FF079
:101CD000FF321A613A687968034803F02BFF034624
:101CE00018460837BD4680BD880D002080B483B0FB
:101CF00000AF0E4B0E4AC3F84C2300237B6009E073
:101D00000A4BD3F84C237B681344FF221A707B687C
:101D100001337B607B68B3F5803FF1D300BF00BF28
:101D20000C37BD465DF8047B704700BF20070020DC
:101D30000080002080B582B000AF786039603A68DA
:101D4000796800200AF0C4F900BF0837BD4680BD9D
:101D500080B500AF094B03F17843094A1360094B82
:101D6000094A1A60054B03F178434FF400620649B3
:101D700018460AF0ADF900BF80BD00BF00F80008AA
:101D8000180400201C040020E00A002080B485B064
:101D900000AF78607B685B09FB600F4AFB68C83363
:101DA00052F823307A6802F01F02012101FA02F290
:101DB0001A430949FB68C83341F82320064BD3F87E
:101DC00040330133044AC2F8403300BF1437BD46E4
:101DD0005DF8047B704700BF2007002080B485B009
:101DE00000AF78607B685B09FB60124AFB68C83310
:101DF00052F823307A6802F01F02012101FA02F240
:101E0000D2431A400B49FB68C83341F82320094BE1
:101E1000D3F84033002B06D0064BD3F84033013BB8
:101E2000044AC2F8403300BF1437BD465DF8047B56
:101E3000704700BF2007002080B582B000AF0023AC
:101E4000FB71AA4B93F81431002B19D1A74B93F8CF
:101E50000B313C2B40F02B81A54B18464FF485737A
:101E60001A46002109F02CF8A04B3C225A709F4BD7
:101E7000012283F814219D4B0122C3F80C2116E1A5
:101E80009A4BD3F80C31994A92F80B11974A1344A4
:101E90000A465A70954BD3F80C31012B70D1934BF5
:101EA0009B78782B54D0782B61DC5A2B4BD05A2B53
:101EB0005DDC492B3CDC412B21DA58E04A3B012216
:101EC00002FA03F303F42462002A14BF0122002261
:101ED000D2B2002A31D142F202021A40002A14BFC3
:101EE00001220022D2B2002A2DD103F00103002BDF
:101EF00014BF01230023DBB2002B33D137E0413B79
:101F0000082B34D801A252F823F000BF471F000865
:101F10006F1F0008471F00083B1F00086F1F0008C5
:101F20006F1F00086F1F00086F1F00085B1F00086D
:101F3000572B1CDC4A2BC1DA19E06C4B4FF485722D
:101F4000C3F8102117E0694B0422C3F8102112E0F6
:101F5000664B0422C3F810210DE0644B0422C3F841
:101F6000102108E0614B0422C3F8102103E05F4B0D
:101F7000002283F814215D4B0222C3F80C2196E065
:101F80005A4BD3F80C31594A92F80B11574A134463
:101F90000A465A70554BD3F80C310133534AC2F8F4
:101FA0000C31524B9B78782B07D1504B93F80B3167
:101FB0003E2B7CD10823FB7179E04C4B9B78492B5D
:101FC00007D14A4B93F80B313E2B70D10923FB719B
:101FD0006DE0464B9B784B2B07D1444B93F80B316C
:101FE0003E2B64D10723FB7161E0404BD3F80C21F9
:101FF0003E4BD3F810319A4259D13C4B9B78413B30
:10200000192B52D801A252F823F000BFA5200008D6
:10201000AB2000089920000875200008AB200008BC
:10202000AB200008AB200008AB200008812000088E
:1020300087200008AB200008AB200008AB20000878
:10204000AB200008AB2000087B200008A52000087A
:10205000AB2000088D200008AB200008932000086A
:10206000AB2000089F200008AB200008AB20000830
:10207000A52000080223FB7119E00323FB7116E081
:102080000923FB7113E00A23FB7110E00423FB71A9
:102090000DE00123FB710AE00523FB7107E0062335
:1020A000FB7104E00723FB7101E00023FB71FB7966
:1020B000002B16D00D4B002283F814210B4BDB783C
:1020C000FF2B09D0094BDA780A4B93F820309A425B
:1020D00002D00023FB7104E0044BDA78034B83F851
:1020E0001521FB7918460837BD4680BD2007002022
:1020F00021070020E00A002080B584B000AF03462D
:10210000FB71FB79012B3DD1A74BA84AA849A948EF
:1021100008F0AAFEB860BB68022B40F0B081A64B65
:1021200093F8543343F00103DAB2A34B83F85423FA
:10213000A14BA24AC3F84C239F4B0022C3F848236B
:102140009D4B002283F855239B4B0022C3F850235C
:102150000023FB6008E0984AFB68C833002142F87E
:102160002310FB680133FB60FB68072BF3D9924B0C
:102170000022C3F84023904B0022C3F81C23FFF732
:10218000B5FD7CE1FB79022B40F09A808A4B93F8F5
:10219000543303F00103002B00F07181864B93F858
:1021A0000A313E2B40F08480834B93F8543343F044
:1021B0000203DAB2804B83F854234FF482717D48D6
:1021C000FFF77EFD03467C4AC2F858337A4BD3F8BA
:1021D0005833002B06D1784B93F85523764B1B7957
:1021E0009A420DD0744BD3F81C331846FFF7CEFD3E
:1021F000714BD3F85C3301336F4AC2F85C3318E09B
:102200000023FB6012E0FB681A1D6B4BD3F84C33C4
:1022100069490A4452781A70FB680133FB60664BC7
:10222000D3F84C330133644AC2F84C33FB68FF2BBC
:10223000E9D9614BD3F8483303F580735E4AC2F89D
:1022400048335D4BD3F848235B4BD3F844339A4271
:102250001FD1594B93F8543323F00203DAB2564B93
:1022600083F85423544B93F8543343F00403DAB205
:10227000514B83F85423504BD3F85C33002B04D1DB
:102280004D4B802283F8542303E04B4B102283F8FC
:102290005423494B93F855330133DAB2464B83F854
:1022A0005523454BD3F81C330133434AC2F81C3342
:1022B000414B1B7823F00103DAB23F4B1A70DEE08A
:1022C000FB79052B3DD13C4BDA783D4B93F8203020
:1022D0009A4240F0D480384B3C2283F81622364B89
:1022E000432283F81722364B93F82020324B83F891
:1022F0001822314BD3F85C331B0EDAB22E4B83F825
:1023000019222D4BD3F85C331B0CDAB22A4B83F81D
:102310001A22294BD3F85C331B0ADAB2264B83F816
:102320001B22254BD3F85C33DAB2234B83F81C22F3
:10233000214B3E2283F81D221F4B0822C3F818238D
:102340009DE0FB79062B3DD11B4B93F854335BB2D8
:10235000002B80F29480184BDA78194B93F82030D8
:102360009A4240F08C80144B3C2283F81622124B88
:10237000572283F81722124B93F820200E4B83F834
:1023800018220D4B3E2283F819220B4B0422C3F86E
:102390001823094B93F8543343F04003DAB2064B49
:1023A00083F854236BE000BF780A0020640A002001
:1023B000D8C000082507002020070020008000204A
:1023C000E00A0020FB79042B4ED12F4BDA782F4BFB
:1023D00093F820309A4252D14FF482712C48FFF783
:1023E0006FFC0346284AC2F85833274BD3F85833BA
:1023F000002B44D1244B1B791B021A46254B1A6033
:10240000244B1B68244A13441F4AC2F84C33002350
:10241000FB6012E0FB681A1D1B4BD3F84C331A49C2
:102420000A4452781A70FB680133FB60164BD3F8EC
:102430004C330133144AC2F84C33FB68FF2BE9D903
:10244000114B1B791846FFF7C9FC0F4BD3F84033EB
:10245000002B04D10C4B802283F854230FE00A4B4D
:10246000102283F854230AE0FB79032B07D1064B93
:10247000DB78FF2B03D1044BA02283F8542300BF49
:102480001037BD4680BD00BF20070020E00A0020B5
:10249000250700202004002000800020B0B586B071
:1024A00004AF0123FB71AA4B0022C3F81823A84BE9
:1024B0005B783C2B40F0AA81A54B9B78413B192BC4
:1024C00000F29A8101A252F823F000BF35250008DE
:1024D000F9270008F9270008F9270008F92700085C
:1024E000F9270008F9270008F9270008F92700084C
:1024F000F927000875260008F9270008F9270008C1
:10250000F9270008F9270008F927000881270008A3
:10251000F9270008F9270008F9270008F92700081B
:10252000F9270008F9270008F9270008F92700080B
:102530002B260008864BDA78864B93F820309A4297
:1025400040F05D81824B3C2283F81622804B412271
:1025500083F817227F4B93F820207D4B83F81822B5
:102560007B4B012283F81922794B572283F81A22D8
:10257000794BDB691B0ADAB2754B83F81B22764B69
:10258000DB69DAB2724B83F81C22714B4B2283F861
:102590001D226F4B002283F81E226F4BDB891A46E7
:1025A00001239340DAB26A4B83F81F22684B53220F
:1025B00083F82022684B9B891B0A9BB2DAB2644BDA
:1025C00083F82122644B9B89DAB2614B83F8222283
:1025D0005F4B432283F823225F4B1B6B1B0ADAB24B
:1025E0005B4B83F824225C4B1B6BDAB2584B83F8AD
:1025F0002522574B542283F82622574B5B691B0A2E
:10260000DAB2534B83F82722534B5B69DAB2504B53
:1026100083F828224E4B3E2283F829224C4B142269
:10262000C3F818230023FB71E9E0494BDA78494BE2
:1026300093F820309A4240F0E480454B3C2283F8E6
:102640001622434B5A2283F81722424B93F820203C
:102650003F4B83F818223E4B012283F819223C4B52
:102660003E2283F81A223A4B0522C3F8182300238E
:10267000FB71C6E0364BDB78FF2B07D0344BDA78A2
:10268000344B93F820309A4240F0BD80334B039393
:10269000334B0293334B0193334B0093334B344A08
:1026A0003449354808F0E0FB38603B68062B02D01F
:1026B0000123FB71AAE0314B9B6BB3F5806F03DA0A
:1026C0002E4B4FF480629A632C4BDB6BB3F5406F5B
:1026D00003DB2A4B40F6FF32DA63284B1B6C202BBE
:1026E00002DD264B20221A64244B5B6CB3F5007F7D
:1026F00003DA224B4FF400725A64204B9B6CB3F503
:10270000606F03DB1D4B40F6FF529A641B4BDB6C82
:10271000102B02DD194B1022DA64184B9B6B174A01
:102720001362164BDB6B154A5362144B1B6C134A36
:102730009362124B5B6C114AD362104B9B6C1A462E
:102740000E4B1A630D4BDB6C0C4A53635BE000BF0E
:1027500020070020E00A0020A0040020CC0B00206D
:10276000C80B0020C40B0020C00B0020BC0B0020B5
:10277000B80B0020F0C0000824070020800B0020C8
:10278000254BDA78254B93F820309A423DD1224BE5
:102790003C2283F81622204B9A781F4B83F817228D
:1027A0001E4B93F820201C4B83F818221A4B012251
:1027B00083F819221A4B186A194B5C6A184B9B6AEA
:1027C000174AD26A1649096B0D461549496B0391A0
:1027D000029501920093234602461249124808F0DE
:1027E00023FB1148FDF77CFD034604330A4AC2F877
:1027F00018330023FB7108E00123FB7106E000BFE2
:1028000004E000BF02E000BF00E000BFFB79184613
:102810000837BD46B0BD00BF20070020E00A0020F9
:10282000800B002004C100083A09002080B582B066
:1028300000AF274B9B78782B45D1254BDB78FF2BBE
:1028400041D1234B1B79322B16D0322B3BDC302B62
:1028500002D0312B08D036E01D4B1B7803F07F03EC
:10286000DAB21B4B1A702EE0194B1B7863F07F0312
:10287000DAB2174B1A7026E0154B1B785BB2002BAF
:1028800020DA144B184620231A46002108F018FBC2
:10289000114B184620231A46002108F011FB0E4B5D
:1028A0000C4A0E490E4808F0DFFA78607B68022B6C
:1028B00008D1074B5A790B4B83F82020044BA022F8
:1028C00083F8542300BF002318460837BD4680BD57
:1028D00020070020020B0020220B00201CC1000852
:1028E00026070020E00A002080B500AF114B00222F
:1028F000C3F818230F4BDA780F4B93F820309A4225
:1029000016D10E4B0E4A0F490F4808F08DFA0E48AB
:10291000FDF7E6FC0346074AC2F81833064B93F866
:102920002020044B83F81822024B012283F819223D
:1029300000BF80BD20070020E00A0020220B0020FD
:10294000020B002024C100083609002080B500AF2A
:10295000154B0022C3F81823134BDA78134B93F866
:1029600020309A421ED11249124808F05DFA1249ED
:10297000124808F059FA114B0E4A1149114808F053
:1029800053FA1048FDF7ACFC0346074AC2F8183367
:10299000064B93F82020044B83F81822024B0122A7
:1029A00083F8192200BF80BD20070020E00A002024
:1029B00034C10008240400204CC100085404002045
:1029C00068C100083609002080B582B000AF01233D
:1029D000FB71FFF731FA0346BB71BB79002B1DD0A9
:1029E000BB79072B04D1FFF759FD0346FB7115E0B6
:1029F000BB79082B02D1FFF719FF0FE0BB79092B38
:102A000002D1FFF771FF09E0BB790A2B02D1FFF772
:102A10009DFF03E0BB791846FFF76EFBFB79184674
:102A20000837BD4680BD000080B582B000AF254BA1
:102A30001B785BB2002B41DB224BD3F81833002B01
:102A40003CD0204BD3F8183302331F4A10461A46A5
:102A5000002108F035FA00237B600FE07B6801332A
:102A600018497A680A4402F216221178154A13446A
:102A70000A4683F816217B6801337B60114BD3F83B
:102A800018337A689A42E9D30E4B002283F8162154
:102A900072B600BF6420FEF713F862B600BF094BA0
:102AA000D3F818339BB202339BB21A46064904206E
:102AB000FEF750FE034B0022C3F8182300BF08376F
:102AC000BD4680BD200700203608002080B500AF3D
:102AD0000C4B40F6FF729A810A4B0022DA81094BB7
:102AE00000225A70074B80221A700021064803F01A
:102AF000E5F9002300220021034803F04BFA00BF50
:102B000080BD00BFA0040020AC0D002080B400AF49
:102B10000D4B1B785BB2002B10DA0B4B1B7803F0CC
:102B20007F03DAB2084B1A70074B1B7843F001039E
:102B3000DAB2054B1A70044B00225A7000BFBD4632
:102B40005DF8047B704700BFA004002080B500AF93
:102B5000314B1B7803F00103002B5AD02E4B5B78CE
:102B6000032B56D801A252F823F000BF7D2B00089A
:102B7000A32B0008C52B0008F12B0008002300221E
:102B80000021264803F006FA1920FDF7D1FD1A208E
:102B9000FDF7CEFD204B0022DA621F4B01225A7056
:102BA00037E01D4B1B7803F00203002B2ED040F6BC
:102BB000FF7300220021194803F0ECF9164B0222A2
:102BC0005A7023E0144B1B7803F00403002B1FD032
:102BD0001920FDF7CBFD1A20FDF7C8FD0E4B03228F
:102BE0005A700023002200210C4803F0D3F90FE0B3
:102BF000094B00225A70084B80221A70064B1B7832
:102C000023F00703DAB2044B1A7002E000BF00E0C1
:102C100000BF00BF80BD00BFA0040020AC0D00209D
:102C200080B483B000AF5A4B00229A62584B9B6A23
:102C3000574A536244237B600BE0554B5B6A55490E
:102C40007A6831F812201344514A53627B68013389
:102C50007B607B687F2BF0D900237B600DE04C4BC1
:102C60009B6A4C497A6831F812209B1A03F6FF736D
:102C7000474A93627B6801337B607B683F2BEED9C8
:102C8000434B0022DA81424B9B6A9B09404A136204
:102C90003F4B5B6ADB093E4AD3613D4BDA693C4BF3
:102CA0001B6A9A4206D93A4BDA69394B1B6AD31A26
:102CB000374AD361374BB3F888301A46344BDA6160
:102CC000334BDA69324B1B6A9A4216D9304BDA69B8
:102CD0002F4B1B6AD31A2E4AD3610EE02C4BDB8993
:102CE000062B10D82A4BDB695B08294AD361284B95
:102CF000DB8901339AB2264BDA81254BDB69B3F5C8
:102D0000806FEBD800E000BF234B1B881A4640F6CB
:102D1000B83302FB03F3214A9288B3FBF2F31C4A57
:102D200093611F4B1A881F4B1B889A421DD01B4B67
:102D3000DB881A46164B9B6902FB03F31A4AA2FB77
:102D400003239B091A46174B1B88D21A13469B0074
:102D500013441B011A46124B1B881946114B1B8842
:102D6000CB1A92FBF3F31E3301E047F6FF73084AD8
:102D70005361074B5B69053B054A5361044B0022D5
:102D80001A6300BF0C37BD465DF8047B704700BF77
:102D9000A004002020050020AA75FF1FE0040020E9
:102DA000CA75FF1FA875FF1FF119760580B500AF22
:102DB000214B1B88214AD26AC3F57F630F3399B236
:102DC0001F4B23F812101C4B5B881C4AD26AC3F5B8
:102DD0007F630F3399B21B4B23F81210174BDB6A3A
:102DE000402B07D1154B1B7843F00203DAB2134B8B
:102DF0001A7019E0114BDB6AC42B15D10023002295
:102E00000021114803F0C6F80C4B1B7843F008036F
:102E1000DAB20A4B1A70094B1B7843F00403DAB29A
:102E2000064B1A70FFF7FCFE044BDB6A0133034AC2
:102E3000D36200BF80BD00BFE0040020A0040020DA
:102E40002005002020060020AC0D002080B584B0B5
:102E500000AF78603F4B82221A603E4B1B683E49B0
:102E60003E4A084611461A4608F05EF83C4B70226E
:102E70001A603B4B1B683B493B4A084611461A46C1
:102E800008F052F800210420FDF786FE4FF47A7313
:102E9000012236490420FEF77BFC354B0022C3F8A3
:102EA0000C21344BDE221A70324BAD225A70314B5A
:102EB000BE229A702F4BEF22DA70FEF717FF032223
:102EC00064210120FEF7E0FB294B002283F8142146
:102ED0002948FDF74DFF07F1080207F10C031146E1
:102EE0001846FEF77BF8224B0022C3F81823FB6834
:102EF00003F00403002B14D01D4B93F8543303F05C
:102F0000C003C02B04D14FF470411C48FEF712FFE0
:102F1000174B93F8543303F0A003A02B01D1FEF715
:102F200017FFFB6803F01003002B0FD0BB6803F4FE
:102F30008073002B0AD0FFF747FD0346002B05D115
:102F400004230C4A01210220FDF778FEFFF76CFDF7
:102F5000BEE700BFCC0A0020E00A002000F800080D
:102F6000D00A0020800B002000F000082B08002071
:102F700020070020C40A00201400000A008000205E
:102F800080B584B000AF786000211920FDF704FE01
:102F900000211A20FDF700FE042224491920FDF724
:102FA0006FFB022222491A20FDF76AFBFFF78EFD14
:102FB00003220A210120FEF767FB1E48FDF7D8FE19
:102FC00007F1080207F10C0311461846FEF706F850
:102FD000FB6803F00803002B18D017490120FDF708
:102FE00053FE0346042B11D1134B1B78DE2B0DD15E
:102FF000114B5B78AD2B09D10F4B9B78BE2B05D1C4
:103000000D4BDB78EF2B01D1FFF780FDFB6803F060
:103010000403002B01D0FFF799FDFB6803F0007358
:10302000002BCAD0FFF7C2FEC7E700BFE0040020B4
:10303000000500200C000002D40A002080B582B0F8
:1030400000AF78600020FDF793FE00BF0837BD4653
:1030500080BD80B582B000AF78600020FDF788FEAB
:1030600000BF0837BD4680BD80B500AF00F007FF48
:1030700000F01EF8FDF7F4FC00F090FB00F054FBAC
:1030800000F002FB00F0BEF900F042FA00F05CF83C
:1030900000F074FA00F094F900F0A6FA00F0ECF9F0
:1030A00000F00AF900F00EFAFDF746FD00BFFDE75B
:1030B00080B594B000AF07F11803382200211846FC
:1030C00007F0FEFE3B1D00221A605A609A60DA602B
:1030D0001A61002004F01EF80223BB614FF48073D4
:1030E0007B624023BB6202237B630223BB63042316
:1030F000FB6355233B6402237B640223BB640223EE
:10310000FB6407F11803184604F03AF90346002B54
:1031100001D000F05BFB0F237B600323BB60002327
:10312000FB6000233B6100237B613B1D04211846AB
:1031300004F038FC0346002B01D000F047FB00BF31
:103140005037BD4680BD000080B58CB000AF07F1A0
:10315000240300221A605A609A603B1D202200213D
:10316000184607F0ADFE4F4B4FF0A0421A604D4B92
:103170004FF440325A604B4B00229A60494B002278
:10318000DA60484B00221A61464B01225A61454BD6
:1031900008229A61434B00221A77424B00225A7749
:1031A000404B04221A623F4B002283F824203D4BFF
:1031B0004FF4B462DA623B4B4FF480621A63394BCE
:1031C000012283F83820374B0022DA63354B012285
:1031D00083F84020334B08225A64324B60229A64B1
:1031E000304B0022DA642F4B01221A652D4801F082
:1031F00011F90346002B01D000F0E8FA00237B62AE
:1032000007F124031946274802F0FAF90346002B78
:1032100001D000F0DBFA244B7B600623BB60062361
:10322000FB607F233B6104237B610023BB613B1D6B
:1032300019461C4801F07AFB0346002B01D000F030
:10324000C5FA1A4B7B600C23BB603B1D1946154821
:1032500001F06CFB0346002B01D000F0B7FA144BD1
:103260007B601223BB603B1D19460E4801F05EFBDC
:103270000346002B01D000F0A9FA0E4B7B60182307
:10328000BB600023FB603B1D1946064801F04EFB66
:103290000346002B01D000F099FA00BF3037BD463D
:1032A00080BD00BFF00B0020002090B60400600835
:1032B000000084CB000021C380B588B000AF3B463E
:1032C00020220021184607F0FBFD394B394A1A60CD
:1032D000374B4FF440325A60354B00229A60344BE2
:1032E0000022DA60324B00221A61314B01225A610E
:1032F0002F4B08229A612E4B00221A772C4B00226A
:103300005A772B4B02221A62294B002283F8242081
:10331000274B4FF4F862DA62254B4FF480621A6350
:10332000234B012283F83820214B0022DA63204B03
:10333000012283F840201E4B08225A641C4B602255
:103340009A641B4B0022DA64194B01221A65184853
:1033500001F060F80346002B01D000F037FA164B5D
:103360003B6006237B600623BB607F23FB60042356
:103370003B6100237B613B4619460D4801F0D6FABC
:103380000346002B01D000F021FA0C4B3B600C23CC
:103390007B603B461946064801F0C8FA0346002BFD
:1033A00001D000F013FA00BF2037BD4680BD00BF3A
:1033B0005C0C002000010050000029C30800900CA4
:1033C00080B500AF0D4B0E4A1A600C4B00221A71EB
:1033D0000A4B00225A71094B00225A61074B002206
:1033E0009A61064B01221A62044802F03FFB034631
:1033F000002B01D000F0EAF900BF80BD880D00204D
:103400000030024080B58CB000AF3B463022002136
:10341000184607F055FD164B164A1A60144802F07C
:103420002BFD0346002B01D000F0D0F902233B60B6
:1034300000233B7100237B710023BB600023FB60F2
:1034400000233B6100237B610123BB610023FB61FF
:103450003B4600221946064802F0CAFD0346002BEF
:1034600001D000F0B3F900BF3037BD4680BD00BFCA
:10347000AC0D00200008005080B500AF0F4B104A83
:103480001A600E4B80225A600C4B60229A600B4BE4
:1034900000221A61094B01221A75084B00229A6119
:1034A000064B0022DA62054803F00EFC0346002BAF
:1034B00001D000F08BF900BF80BD00BFC00D00201F
:1034C0000003014080B500AF0F4B104A1A600E4B4D
:1034D00000225A600C4B60229A600B4B00221A614A
:1034E000094B01221A75084B00229A61064B0022F3
:1034F000DA62054803F0E8FB0346002B01D000F038
:1035000065F900BF80BD00BFFC0D00200403014031
:1035100080B584B000AF3B1D00221A605A609A60EB
:10352000144B154A1A60134B05225A60114B0022A6
:103530009A60104B1422DA600E4B00229A610D48FB
:1035400004F088FE0346002B01D000F03FF9202351
:103550007B600023FB603B1D1946064805F0ACF973
:103560000346002B01D000F031F900BF1037BD46F3
:1035700080BD00BF380E00200010004080B584B030
:1035800000AF3B1D00221A605A609A60144B154A26
:103590001A60134B05225A60114B00229A60104B9F
:1035A0001422DA600E4B00229A610D4804F052FE9C
:1035B0000346002B01D000F009F920237B60002393
:1035C000FB603B1D1946064805F076F90346002BC3
:1035D00001D000F0FBF800BF1037BD4680BD00BF32
:1035E000840E00200014004080B588B000AF07F1C1
:1035F000100300221A605A609A60DA603B1D0022B4
:103600001A605A609A601E4B1E4A1A601C4B1422A4
:103610005A601B4B00229A60194B2822DA60184B23
:1036200000221A61164B00225A61154B00229A6142
:10363000134804F00FFE0346002B01D000F0C6F83B
:103640004FF480533B6107F1100319460C4804F016
:10365000E9FE0346002B01D000F0B8F820237B6080
:103660000023FB603B1D1946054805F025F903467C
:10367000002B01D000F0AAF800BF2037BD4680BD66
:10368000D00E00200040014080B500AF234B244AFB
:103690001A60224B234A5A60204B00229A601F4B2B
:1036A0000022DA601D4B00221A611C4B0C225A6169
:1036B0001A4B00229A61194B0022DA61174B002243
:1036C0001A62164B00225A62144B00229A6200239F
:1036D00000220021114807F01DFA0346002B01D0FB
:1036E00000F074F800210D4807F0D4FA0346002BCF
:1036F00001D000F06BF80021084807F009FB0346F1
:10370000002B01D000F062F8044807F08AFA034663
:10371000002B01D000F05AF800BF80BD1C0F002024
:103720000038014090D0030080B582B000AF1A4B42
:103730009B6C194A43F004039364174B9B6C03F092
:1037400004037B607B68144B9B6C134A43F00103BA
:103750009364114B9B6C03F001033B603B680022B8
:1037600000210B2002F033F90B2002F04AF900226D
:1037700000210C2002F02BF90C2002F042F900226B
:1037800000210E2002F023F90E2002F03AF900BFCA
:103790000837BD4680BD00BF0010024080B483B032
:1037A00000AF094BDB6C084A43F00103D364064BBE
:1037B000DB6C03F001037B607B6800BF0C37BD4608
:1037C0005DF8047B704700BF0010024080B400AF7A
:1037D00072B600BF00BFFDE780B582B000AF0F4BEF
:1037E0001B6E0E4A43F0010313660C4B1B6E03F075
:1037F00001037B607B68094B9B6D084A43F0805353
:103800009365064B9B6D03F080533B603B6803F070
:1038100025FD00BF0837BD4680BD00BF0010024037
:1038200080B5A0B000AF786007F16C0300221A6089
:103830005A609A60DA601A6107F11C035022002175
:10384000184607F03DFB7B681B68B3F1A04F69D1B8
:103850004FF40043FB614FF00053FB6507F11C037D
:10386000184604F0BBFA0346002B01D0FFF7AEFF69
:10387000654B1B680133644A1360634B1B68012B63
:103880000BD1624BDB6C614A43F40053D3645F4B52
:10389000DB6C03F40053BB61BB695C4BDB6C5B4AC4
:1038A00043F00103D364594BDB6C03F001037B61EC
:1038B0007B690223FB6603233B6700237B6707F1D9
:1038C0006C0319464FF0904003F07CF8504B514A7E
:1038D0001A604F4B05225A604D4B00229A604C4BA8
:1038E0000022DA604A4B80221A61494B4FF4807201
:1038F0005A61474B4FF480629A61454B2022DA614E
:10390000434B00221A62424802F02AFD0346002B74
:1039100001D0FFF75BFF7B683D4A5A653C4A7B68F4
:1039200093626DE07B681B683B4A934268D14FF419
:103930000043FB614FF00053FB6507F11C03184681
:1039400004F04CFA0346002B01D0FFF73FFF2E4B4B
:103950001B6801332C4A13602B4B1B68012B0BD1C6
:103960002A4BDB6C294A43F40053D364274BDB6CAE
:1039700003F400533B613B69244BDB6C234A43F067
:103980000103D364214BDB6C03F00103FB60FB6894
:103990004023FB6603233B6700237B6707F16C032F
:1039A00019464FF0904003F00DF81C4B1C4A1A606A
:1039B0001A4B24225A60194B00229A60174B00229E
:1039C000DA60164B80221A61144B4FF480725A61F0
:1039D000124B4FF480629A61104B2022DA610F4B38
:1039E00000221A620D4802F0BBFC0346002B01D0F6
:1039F000FFF7ECFE7B68094A5A65084A7B689362C8
:103A000000BF8037BD4680BD10100020001002406E
:103A1000C80C00201C00024000010050280D0020AE
:103A20004400024080B485B000AF78607B681B68BA
:103A30000A4A93420BD10A4B9B6C094A43F48053C8
:103A40009364074B9B6C03F48053FB60FB6800BFDF
:103A50001437BD465DF8047B704700BF003002405C
:103A60000010024080B58AB000AF786007F11403FF
:103A700000221A605A609A60DA601A617B681B68DB
:103A8000154A934224D1154BDB6C144A43F480331E
:103A9000D364124BDB6C03F480333B613B690F4B07
:103AA000DB6C0E4A43F00103D3640C4BDB6C03F078
:103AB0000103FB60FB6810237B610323BB610023D0
:103AC000FB6107F1140319464FF0904002F07AFFB2
:103AD00000BF2837BD4680BD0008005000100240DE
:103AE00080B58AB000AF786007F1140300221A6035
:103AF0005A609A60DA601A617B681B681F4A9342B9
:103B000019D11F4BDB6C1E4A43F00103D3641C4BDD
:103B1000DB6C03F001033B613B6902237B61032300
:103B2000BB610023FB6107F1140319464FF090407D
:103B300002F048FF1DE07B681B68124A934218D1CF
:103B40000F4BDB6C0E4A43F00103D3640C4BDB6C70
:103B500003F00103FB60FB6880237B610323BB61EF
:103B60000023FB6107F1140319464FF0904002F067
:103B700029FF00BF2837BD4680BD00BF00030140BC
:103B8000001002400403014080B487B000AF7860A9
:103B90007B681B681C4A93420CD11C4B9B6D1B4AD3
:103BA00043F010039365194B9B6D03F010037B6189
:103BB0007B6922E07B681B68154A93420CD1134B4A
:103BC0009B6D124A43F020039365104B9B6D03F0ED
:103BD00020033B613B6910E07B681B680D4A934200
:103BE0000BD10A4B1B6E094A43F480331366074B13
:103BF0001B6E03F48033FB60FB6800BF1C37BD46BF
:103C00005DF8047B704700BF0010004000100240C8
:103C1000001400400040014080B59EB000AF7860C5
:103C200007F1640300221A605A609A60DA601A6130
:103C300007F1140350220021184607F041F97B6870
:103C40001B68384A934268D101237B610023BB6122
:103C500007F11403184604F0C1F80346002B01D005
:103C6000FFF7B4FD304B1B6E2F4A43F480431366BD
:103C70002D4B1B6E03F480433B613B692A4BDB6C8D
:103C8000294A43F00103D364274BDB6C03F00103A3
:103C9000FB60FB684FF4B0537B660223BB660023D6
:103CA000FB6600233B6707237B6707F16403194624
:103CB0004FF0904002F086FE1C4B1D4A1A601B4BD1
:103CC00019225A60194B10229A60184B0022DA60B0
:103CD000164B80221A61154B00225A61134B0022A9
:103CE0009A61124B0022DA61104B00221A620F48CF
:103CF00002F036FB0346002B01D0FFF767FD7B681F
:103D00000A4ADA67094A7B6893620022002125206B
:103D100001F05DFE252001F074FE00BF7837BD463E
:103D200080BD00BF0038014000100240B00F0020ED
:103D30000800024080B400AF00BFFDE780B400AFD0
:103D400000BFBD465DF8047B7047000080B500AF42
:103D5000024802F0E8FC00BF80BD00BFB00F0020A9
:103D600080B500AF024802F0DEFC00BF80BD00BF9E
:103D7000C80C002080B500AF024802F0D4FC00BFA0
:103D800080BD00BF280D002080B500AF024804F0C0
:103D9000EDFE00BF80BD00BF1C0F002080B586B0C7
:103DA00000AF7860144A154BD31A7B617B693B6185
:103DB000134B1B68002B02D1114B124A1A60104B97
:103DC0001A687B6813443A699A4207D207F080F870
:103DD00003460C221A604FF0FF3309E0084B1B68C2
:103DE000FB60074B1A687B681344054A1360FB6845
:103DF00018461837BD4680BD00C0012000040000F1
:103E0000141000206811002080B400AF064BD3F8D6
:103E10008830054A43F47003C2F8883000BFBD46BD
:103E20005DF8047B704700BF00ED00E00D4885465B
:103E3000FFF7EAFF0C480D490D4A002302E0D45871
:103E4000C4500433C4188C42F9D30A4A0A4C0023E4
:103E500001E013600432A242FBD307F03FF8FFF702
:103E600003F9FEE700C0012000000020C803002085
:103E700030C30008E003002064110020FEE780B595
:103E800082B000AF0023FB71032001F095FD0F20ED
:103E900000F00EF80346002B02D00123FB7101E075
:103EA000FFF79AFCFB7918460837BD4680BD000035
:103EB00080B584B000AF78600023FB73164B1B689D
:103EC000002B22D0154B1A68134B1B684FF47A71E4
:103ED000B1FBF3F3B2FBF3F3184601F0AEFD03467A
:103EE000002B0FD17B680F2B09D8002279684FF087
:103EF000FF3001F06CFD0A4A7B68136007E0012384
:103F0000FB7304E00123FB7301E00123FB73FB7BE4
:103F100018461037BD4680BD3C000020340000200C
:103F20003800002080B400AF054B1A68054B1B68B1
:103F30001344034A136000BFBD465DF8047B70471D
:103F4000181000203C00002080B584B000AF7860DD
:103F5000FDF7B2F9B8607B68FB60FB68B3F1FF3F27
:103F600004D0094B1B68FA681344FB6000BFFDF7DF
:103F7000A3F90246BB68D31AFA689A42F7D800BF81
:103F800000BF1037BD4680BD3C00002080B483B028
:103F900000AF786039607B689B6823F47C123B68D3
:103FA0001A437B689A6000BF0C37BD465DF8047BFE
:103FB000704780B483B000AF786039607B689B68DD
:103FC00023F0E0723B681A437B689A6000BF0C37AD
:103FD000BD465DF8047B704780B483B000AF786065
:103FE0007B689B6803F0E07318460C37BD465DF8AC
:103FF000047B704780B487B000AFF860B9607A6026
:104000003B60FB6860331A46BB689B0013447B61CE
:104010007B691A68084B13407A6802F0F8413A68E5
:104020000A43134343F000427B691A6000BF1C3708
:10403000BD465DF8047B704700F0FF0380B485B097
:1040400000AF786039607B6860331A463B689B003C
:104050001344FB60FB681B6803F0F84318461437F1
:10406000BD465DF8047B704780B487B000AFF86050
:10407000B9607A60FB6860331A46BB689B001344E2
:104080007B617B691B6823F000427B681A437B6974
:104090001A6000BF1C37BD465DF8047B704780B4D2
:1040A00087B000AFF860B9607A60FB6860331A4689
:1040B000BB689B0013447B617B691B6823F08072A3
:1040C0007B681A437B691A6000BF1C37BD465DF8E8
:1040D000047B704780B487B000AFF860B9607A6045
:1040E000FB6860331A46BB689B0013447B617B69A5
:1040F0001B6823F000727B681A437B691A6000BF5B
:104100001C37BD465DF8047B704780B483B000AFB8
:10411000786039607B685B6923F000423B681A4332
:104120007B685A6100BF0C37BD465DF8047B704761
:1041300080B483B000AF78607B68DB6803F44063D1
:10414000002B01D1012300E0002318460C37BD46A7
:104150005DF8047B704780B487B000AFF860B96049
:104160007A60FB6830331A46BB681B0A9B0003F079
:104170000C0313447B617B691A68BB6803F01F035F
:104180001F2101FA03F3DB431A407B689B0E03F007
:104190001F01BB6803F01F0301FA03F31A437B6995
:1041A0001A6000BF1C37BD465DF8047B704780B4C1
:1041B00087B000AFF860B9607A60FB6814331A46C4
:1041C000BB685B0E9B0003F0040313447B617B69B7
:1041D0001A68BB681B0D03F01F03072101FA03F3E4
:1041E000DB431A40BB681B0D03F01F03796801FA1B
:1041F00003F31A437B691A6000BF1C37BD465DF8A4
:10420000047B704780B485B000AFF860B9607A6015
:10421000FB68D3F8B020BB68C3F31203DB431A403A
:104220007B6803F018030849D940BB680B40C3F30F
:1042300012031A43FB68C3F8B02000BF1437BD4611
:104240005DF8047B704700BFFFFF070080B483B0B8
:1042500000AF78607B689B6803F01F0318460C373B
:10426000BD465DF8047B704780B483B000AF7860D2
:104270007B689B6823F0204323F03F037A689360B8
:1042800000BF0C37BD465DF8047B704780B483B037
:1042900000AF78607B689B6803F00053B3F1005F68
:1042A00001D1012300E0002318460C37BD465DF81C
:1042B000047B704780B483B000AF78607B689B68F4
:1042C00023F0104323F03F0343F080527B689A6051
:1042D00000BF0C37BD465DF8047B704780B483B0E7
:1042E00000AF78607B689B6803F08053B3F1805F18
:1042F00001D1012300E0002318460C37BD465DF8CC
:10430000047B704780B483B000AF78607B689B68A3
:1043100023F0004323F03F0343F001027B689A60DF
:1043200000BF0C37BD465DF8047B704780B483B096
:1043300000AF78607B689B6823F0004323F03F0365
:1043400043F002027B689A6000BF0C37BD465DF8FF
:10435000047B704780B483B000AF78607B689B6853
:1043600003F00103012B01D1012300E000231846D3
:104370000C37BD465DF8047B704780B483B000AF56
:1043800078607B689B6803F00203022B01D1012354
:1043900000E0002318460C37BD465DF8047B7047EB
:1043A00080B483B000AF78607B689B6823F00043E3
:1043B00023F03F0343F004027B689A6000BF0C3790
:1043C000BD465DF8047B704780B483B000AF786071
:1043D0007B689B6803F00403042B01D1012300E0F8
:1043E000002318460C37BD465DF8047B704780B447
:1043F00083B000AF78607B689B6803F00803082BEC
:1044000001D1012300E0002318460C37BD465DF8BA
:10441000047B704790B589B000AF78600023FB77CC
:104420000023FB607B68002B01D101239BE17B68AB
:104430005B69002B7B68DB6D002B09D17868FFF787
:10444000EFF97B6800221A667B68002283F8582007
:104450007B681B681846FFF719FF0346002B04D042
:104460007B681B681846FFF7FFFE7B681B681846D1
:10447000FFF734FF0346002B15D17B681B681846F5
:10448000FFF718FF974B1B689B09974AA2FB032372
:104490009B0901335B00FB6002E0FB68013BFB60B2
:1044A000FB68002BF9D17B681B681846FFF716FFE5
:1044B0000346002B0DD17B68DB6D43F010027B6857
:1044C000DA657B681B6E43F001027B681A66012384
:1044D000FB777B681B681846FFF776FF78617B687F
:1044E000DB6D03F01003002B40F034817B69002B5F
:1044F00040F030817B68DB6D23F4817343F002026E
:104500007B68DA657B681B681846FFF723FF034664
:10451000002B37D17B681B68B3F1A04F04D07B68B8
:104520001B68724A93420FD14FF0A040FFF712FF71
:1045300004466E48FFF70EFF03462343002B0CBFD3
:1045400001230023DBB208E06948FFF703FF0346BD
:10455000002B0CBF01230023DBB2002B12D07B68A1
:104560001B68B3F1A04F04D07B681B685F4A93427D
:1045700001D1604A00E0604A7B685B6819461046DA
:10458000FFF704FD7B685B7F5A037B68DB6B1A4394
:104590007B68DB681A437B689B681A437B6893F8E7
:1045A00024301B041343BB617B6893F82430012B38
:1045B00006D17B689B6A013B5B04BA691343BB610C
:1045C0007B68DB6A002B09D07B68DB6A03F47872B6
:1045D0007B681B6B1343BA691343BB617B681B6821
:1045E000DA68464B13407A681268B9690B43D360A6
:1045F0007B681B681B6923F040617B685A6B7B6892
:104600001B680A431A617B681B681846FFF7EFFEB8
:1046100038617B69002B7BD13B69002B78D17B68AB
:104620001B7F9A037B6893F838305B001343BB61B0
:104630007B681B68DB6823F4804323F002037A68FD
:104640001268B9690B43D3607B681B69002B17D0D4
:104650007B681B681A697B681B6842F480321A61A8
:104660007B681B68D3F8C03023F47F5323F03F03EB
:104670007A6811697A6812680B43C2F8C03013E097
:104680007B681B681A697B681B6822F480321A6198
:104690007B681B68D3F8C0307A68126823F47F53B4
:1046A00023F03F03C2F8C0307B6893F84030012B01
:1046B00026D17B681B681B6923F4FF6323F0040386
:1046C0007A68516C7A68926C11437A68D26C1143A3
:1046D0007A68126D0A431A437B681B6842F0010234
:1046E0001A6115E034000020632D3E0500010050E2
:1046F0000004005000030050000700500740F0FF86
:104700007B681B681A697B681B6822F001021A61CA
:104710007B685B69012B0CD17B681B681B6B23F0EA
:104720000F017B681B6A5A1E7B681B680A431A6369
:1047300007E07B681B681A6B7B681B6822F00F021E
:104740001A637B68DB6D23F0030343F001027B688F
:10475000DA6507E07B68DB6D43F010027B68DA65A1
:104760000123FB77FB7F18462437BD4690BD00BF71
:1047700080B586B000AFF860B9607A60FB681B68EE
:10478000B3F1A04F04D0FB681B68574A934201D194
:10479000564B00E0564B1846FFF758FD3861FB6852
:1047A0001B681846FFF710FE0346002B40F094806C
:1047B000FB6893F85830012B01D102238FE0FB688E
:1047C000012283F85820FB681B684A4A934208D0AC
:1047D0003B69002B05D03B69052B02D03B69092BB7
:1047E00073D1F86800F0CEFC0346FB75FB7D002B0F
:1047F00066D1FB68DB6D23F4706323F0010343F49F
:104800008072FB68DA65FB681B68374A934202D006
:10481000FB681B6801E04FF0A043FA6812689342FE
:1048200002D03B69002B05D1FB68DB6D23F48012BD
:10483000FB68DA65FB68DB6D03F48053002B06D060
:10484000FB681B6E23F00602FB681A6602E0FB6839
:1048500000221A66FB685B6D274ADA62FB685B6DB3
:10486000264A1A63FB685B6D254A5A63FB681B681E
:104870001C221A60FB68002283F85820FB681B6822
:104880005A68FB681B6842F010025A60FB681B689C
:10489000DA68FB681B6842F00102DA60FB68586D59
:1048A000FB681B6840331946BA687B6801F000FE5C
:1048B0000346FB75FB681B681846FFF771FD0DE0AA
:1048C000FB68002283F8582008E00123FB75FB6891
:1048D000002283F8582001E00223FB75FB7D184677
:1048E0001837BD4680BD00BF0001005000030050D6
:1048F00000070050000400506F53000847540008A0
:104900006354000880B483B000AF786000BF0C37F8
:10491000BD465DF8047B704780B483B000AF78601B
:1049200000BF0C37BD465DF8047B704780B5B6B05C
:1049300000AF78603960002387F8D7300023FB6030
:104940007B6893F85830012B02D1022300F004BC9D
:104950007B68012283F858207B681B681846FFF7A4
:1049600033FD0346002B40F0E8837B6818683B6802
:1049700059683B681B681A46FFF7EDFB7B681B68AC
:104980001846FFF721FDC7F8D0007B681B68184662
:10499000FFF72DFDC7F8CC00D7F8D030002B40F042
:1049A000D981D7F8CC30002B40F0D4813B689B688C
:1049B000B3F1004F0FD17B6818683B681B68002279
:1049C0001946FFF7F4FB7B681B684FF0004118465F
:1049D000FFF79BFB0EE07B6818683B6819683B6833
:1049E0009B681A46FFF7E3FB7B681B6800211846AB
:1049F000FFF78BFB3B685A697B681B68DB68DB0849
:104A000003F003035B0002FA03F3C7F8C8303B6806
:104A10001B69042B22D07B6818683B6819693B68C6
:104A20001A68D7F8C830FFF7E5FA7B6818683B6862
:104A300019693B689B691A46FFF731FB7B68186868
:104A40003B6819693B681B7F012B02D14FF0007353
:104A500000E000231A46FFF73DFB7BE17B681B6803
:104A600000211846FFF7EAFA0346C3F31203002BAE
:104A70000AD17B681B6800211846FFF7DFFA03465E
:104A80009B0E03F01F021EE07B681B680021184686
:104A9000FFF7D4FA0346C7F8BC30D7F8BC3093FA16
:104AA000A3F3C7F8B830D7F8B830C7F8C030D7F894
:104AB000C030002B01D1202304E0D7F8C030B3FA76
:104AC00083F3DBB21A463B681B68C3F31203002B67
:104AD00005D13B681B689B0E03F01F0318E03B6881
:104AE0001B68C7F8B030D7F8B03093FAA3F3C7F813
:104AF000AC30D7F8AC30C7F8B430D7F8B430002BAE
:104B000001D1202304E0D7F8B430B3FA83F3DBB249
:104B10009A4206D17B681B68002200211846FFF7E5
:104B2000A3FA7B681B6801211846FFF787FA034642
:104B3000C3F31203002B0AD17B681B6801211846BE
:104B4000FFF77CFA03469B0E03F01F021EE07B6812
:104B50001B6801211846FFF771FA0346C7F8A43015
:104B6000D7F8A43093FAA3F3C7F8A030D7F8A03051
:104B7000C7F8A830D7F8A830002B01D1202304E0D3
:104B8000D7F8A830B3FA83F3DBB21A463B681B6848
:104B9000C3F31203002B05D13B681B689B0E03F087
:104BA0001F0318E03B681B68C7F89830D7F89830A7
:104BB00093FAA3F3C7F89430D7F89430C7F89C3031
:104BC000D7F89C30002B01D1202304E0D7F89C308B
:104BD000B3FA83F3DBB29A4206D17B681B680022EA
:104BE00001211846FFF740FA7B681B68022118462E
:104BF000FFF724FA0346C3F31203002B0AD17B68A4
:104C00001B6802211846FFF719FA03469B0E03F0B2
:104C10001F021EE07B681B6802211846FFF70EFA90
:104C20000346C7F88C30D7F88C3093FAA3F3C7F853
:104C30008830D7F88830C7F89030D7F89030002BFC
:104C400001D1202304E0D7F89030B3FA83F3DBB22C
:104C50001A463B681B68C3F31203002B05D13B685F
:104C60001B689B0E03F01F0316E03B681B68C7F828
:104C70008030D7F8803093FAA3F3FB67FB6FC7F857
:104C80008430D7F88430002B01D1202304E0D7F8FA
:104C90008430B3FA83F3DBB29A4206D17B681B6897
:104CA000002202211846FFF7DFF97B681B68032109
:104CB0001846FFF7C3F90346C3F31203002B0AD1CA
:104CC0007B681B6803211846FFF7B8F903469B0E63
:104CD00003F01F0217E07B681B6803211846FFF7EB
:104CE000ADF903467B677B6F93FAA3F33B673B6F9A
:104CF000BB67BB6F002B01D1202303E0BB6FB3FA6E
:104D000083F3DBB21A463B681B68C3F31203002B24
:104D100005D13B681B689B0E03F01F0311E03B6845
:104D20001B68BB66BB6E93FAA3F37B667B6EFB6668
:104D3000FB6E002B01D1202303E0FB6EB3FA83F35B
:104D4000DBB29A4206D17B681B6800220321184619
:104D5000FFF78AF97B681B681846FFF7FBFA0346E2
:104D6000002B40F03D817B6818683B6819683B6800
:104D7000DB681A46FFF746FA3B68DB68A24A9342B3
:104D800040F02E817B6818683B681B68C3F31203F0
:104D9000002B0BD13B681B689B0E013303F01F03F4
:104DA000092B94BF01230023DBB219E03B681B6889
:104DB000FB65FB6D93FAA3F3BB65BB6D3B663B6E76
:104DC000002B01D1202303E03B6EB3FA83F3DBB267
:104DD000013303F01F03092B94BF01230023DBB22F
:104DE000002B79D03B681B68C3F31203002B07D15B
:104DF0003B681B689B0E01339B0603F0F84215E0ED
:104E00003B681B683B653B6D93FAA3F3FB64FB6C4B
:104E10007B657B6D002B01D1202303E07B6DB3FA12
:104E200083F3DBB201339B0603F0F8423B681B6857
:104E3000C3F31203002B09D13B681B689B0E01339F
:104E400003F01F03012101FA03F317E03B681B681D
:104E50007B647B6C93FAA3F33B643B6CBB64BB6CDD
:104E6000002B01D1202303E0BB6CB3FA83F3DBB248
:104E7000013303F01F03012101FA03F342EA0301A6
:104E80003B681B68C3F31203002B0AD13B681B6805
:104E90009B0E013303F01F0213465B0013441B05F6
:104EA00018E03B681B68BB63BB6B93FAA3F37B639F
:104EB0007B6BFB63FB6B002B01D1202303E0FB6BBF
:104EC000B3FA83F3DBB2013303F01F0213465B0036
:104ED00013441B050B437EE03B681B68C3F31203BE
:104EE000002B07D13B681B689B0E01339B0603F028
:104EF000F84215E03B681B68FB62FB6A93FAA3F378
:104F0000BB62BB6A3B633B6B002B01D1202303E0F8
:104F10003B6BB3FA83F3DBB201339B0603F0F84239
:104F20003B681B68C3F31203002B09D13B681B6865
:104F30009B0E013303F01F03012101FA03F317E075
:104F40003B681B683B623B6A93FAA3F3FB61FB6916
:104F50007B627B6A002B01D1202303E07B6AB3FADA
:104F600083F3DBB2013303F01F03012101FA03F3E2
:104F700042EA03013B681B68C3F31203002B0DD107
:104F80003B681B689B0E013303F01F0213465B0056
:104F900013441E3B1B0543F000731BE03B681B687A
:104FA0007B617B6993FAA3F33B613B69BB61BB699E
:104FB000002B01D1202303E0BB69B3FA83F3DBB2FA
:104FC000013303F01F0213465B0013441E3B1B0515
:104FD00043F000730B433A6892681946FFF7E7F80D
:104FE0003B681A68094B1340002B00F0AF807B68C8
:104FF0001B68B3F1A04F04D07B681B68044A93423E
:105000000AD1044B09E000BF00007F400000088087
:105010000001005000030050514B1846FEF7DCFF22
:10502000C7F8C4003B681B684E4A934204D03B68F3
:105030001B684D4A934234D1D7F8C43003F40003BF
:10504000002B2ED17B681B68B3F1A04F7ED17B680B
:105050001B68B3F1A04F04D07B681B68434A93429E
:1050600001D1434A00E03E4AD7F8C43043F400037C
:1050700019461046FEF79DFF3E4B1B689B093E4AB2
:10508000A2FB03239B095A1C13465B0013449B009D
:10509000FB6002E0FB68013BFB60FB68002BF9D181
:1050A00054E03B681B68354A934220D1D7F8C4309E
:1050B00003F08073002B1AD17B681B68B3F1A04FFB
:1050C00044D17B681B68B3F1A04F04D07B681B6898
:1050D000264A934201D1264A00E0214AD7F8C4303B
:1050E00043F0807319461046FEF763FF2EE03B68DD
:1050F0001B68234A934229D1D7F8C43003F48003B4
:10510000002B23D17B681B68184A93421ED07B6812
:105110001B68B3F1A04F04D07B681B68134A93420D
:1051200001D1134A00E00E4AD7F8C43043F480039B
:1051300019461046FEF73DFF08E07B68DB6D43F043
:1051400020027B68DA65012387F8D7307B6800226C
:1051500083F8582097F8D7301846D837BD4680BD19
:1051600000070050000021C31000C0900001005053
:105170000003005034000020632D3E05000052C79C
:10518000000084CB80B584B000AF78600023BB60A2
:105190007B681B681846FFF7DDF80346002B76D1C5
:1051A0007B681B689A683C4B1340002B0DD07B68D2
:1051B000DB6D43F010027B68DA657B681B6E43F0A1
:1051C00001027B681A66012362E07B681B6818464F
:1051D000FFF798F87B681B68B3F1A04F04D07B6899
:1051E0001B682E4A934201D12D4B00E02D4B1846EF
:1051F000FEF7F2FE034603F40003002B13D02A4B04
:105200001B689B09294AA2FB03239B095A1C1346CE
:105210005B0013449B00BB6002E0BB68013BBB60CA
:10522000BB68002BF9D1FCF747F8F86028E07B68F1
:105230001B681846FFF78EF80346002B04D17B68E5
:105240001B681846FFF75EF8FCF736F80246FB6865
:10525000D31A022B14D97B681B681B6803F0010367
:10526000012B0DD07B68DB6D43F010027B68DA65A3
:105270007B681B6E43F001027B681A66012307E01E
:105280007B681B681B6803F00103012BCFD100234F
:1052900018461037BD4680BD3F0000800001005019
:1052A000000300500007005034000020632D3E052D
:1052B00080B584B000AF78607B681B681846FFF744
:1052C0005CF8F8607B681B681846FFF743F80346F4
:1052D000002B47D0FB68002B44D17B681B689B6880
:1052E00003F00D03012B0CD17B681B681846FFF7F8
:1052F0001DF87B681B6803221A60FBF7DDFFB860AE
:1053000029E07B68DB6D43F010027B68DA657B681F
:105310001B6E43F001027B681A66012323E0FBF752
:10532000CBFF0246BB68D31A022B14D97B681B68DB
:105330009B6803F00103002B0DD07B68DB6D43F00D
:1053400010027B68DA657B681B6E43F001027B68A4
:105350001A66012307E07B681B689B6803F0010362
:10536000002BDCD1002318461037BD4680BD80B528
:1053700084B000AF78607B689B6AFB60FB68DB6D84
:1053800003F05003002B4BD1FB68DB6D43F400723C
:10539000FB68DA65FB681B681B6803F00803002BD9
:1053A00021D0FB681B681846FEF7C2FE0346002B9F
:1053B00032D0FB681B68DB6803F40053002B2BD151
:1053C000FB68DB6D23F48072FB68DA65FB68DB6DDC
:1053D00003F48053002B1FD1FB68DB6D43F0010207
:1053E000FB68DA6518E0FB681B68DB6803F0020302
:1053F000002B11D1FB68DB6D23F48072FB68DA654A
:10540000FB68DB6D03F48053002B05D1FB68DB6D7B
:1054100043F00102FB68DA65F868FBF7C5F90EE0B6
:10542000FB68DB6D03F01003002B03D0F868FFF777
:1054300073FA04E0FB685B6D5B6B7868984700BFAC
:105440001037BD4680BD80B584B000AF78607B6802
:105450009B6AFB60F868FFF755FA00BF1037BD463E
:1054600080BD80B584B000AF78607B689B6AFB60CC
:10547000FB68DB6D43F04002FB68DA65FB681B6E7E
:1054800043F00402FB681A66F868FFF745FA00BFAC
:105490001037BD4680BD80B483B000AF78607B68B4
:1054A0009B6803F00103012B01D1012300E00023DD
:1054B00018460C37BD465DF8047B704780B483B056
:1054C00000AF786039607B689B6823F0404323F02D
:1054D0003F033A6802F08042134343F000427B6886
:1054E0009A6000BF0C37BD465DF8047B704780B4FE
:1054F00083B000AF78607B689B6803F00043B3F132
:10550000004F01D1012300E0002318460C37BD46AF
:105510005DF8047B704780B483B000AF78607B682F
:105520009B6803F00403042B01D1012300E0002356
:1055300018460C37BD465DF8047B704780B584B0D3
:1055400000AF786039600023BB607B6893F8583007
:10555000012B01D102234DE07B68012283F8582002
:105560007868FFF7A5FE0346FB73FB7B002B36D163
:105570007B68DB6D23F4885323F0020343F00202BF
:105580007B68DA657B681B6839681846FFF796FF09
:1055900014E0BB680133BB60BB68184A93420DD965
:1055A0007B68DB6D23F0120343F010027B68DA6541
:1055B0007B68002283F8582001231BE07B681B686E
:1055C0001846FFF794FF0346002BE2D17B68DB6DA2
:1055D00023F0030343F001027B68DA6505E07B6892
:1055E000DB6D43F010027B68DA657B68002283F88C
:1055F0005820FB7B18461037BD4680BD01DE0400F5
:1056000090B5A1B000AF78603960002387F87F3093
:105610007B6893F85830012B01D10223CBE07B68E3
:10562000012283F8582000237B660023BB667B6839
:105630001B68B3F1A04F02D1614BBB6001E00023B6
:10564000BB60BB68002B0BD17B68DB6D43F0200295
:105650007B68DA657B68002283F858200123AAE082
:10566000BB681846FFF757FFB8677B681B6818468A
:10567000FFF751FF0346002B40F08C80BB6F002BDF
:1056800040F088807B681B68B3F1A04F04D07B6832
:105690001B684B4A934201D14A4B00E04A4B7B675F
:1056A0003B681B68002B41D07B6F9B6823F46042F2
:1056B0003B6859687B6893F838305B030B431A43A7
:1056C0007B6F9A607B681B68B3F1A04F04D07B6846
:1056D0001B683B4A93420FD14FF0A040FFF7DBFE1F
:1056E00004463748FFF7D7FE03462343002B0CBF81
:1056F00001230023DBB208E03448FFF7CCFE034669
:10570000002B0CBF01230023DBB2002B4CD07B6F9E
:105710009B6823F4716323F00F033A6811683A68B9
:1057200092680A431A437B6F9A603DE07B6F9B68E7
:1057300023F460427B6F9A607B681B68B3F1A04FD3
:1057400004D07B681B681E4A93420FD14FF0A040E3
:10575000FFF7A1FE04461A48FFF79DFE03462343C8
:10576000002B0CBF01230023DBB208E01748FFF732
:1057700092FE0346002B0CBF01230023DBB2002B5B
:1057800012D07B6F9B6823F4716323F00F037A6F51
:10579000936009E07B68DB6D43F020027B68DA658B
:1057A000012387F87F3000E000BF7B68002283F888
:1057B000582097F87F3018468437BD4690BD00BF0B
:1057C000000100500003005000070050000400508A
:1057D00080B485B000AF78607B6803F00703FB609E
:1057E0000C4BDB68BB60BA684FF6FF031340BB602D
:1057F000FB681A02BB68134343F0BF6343F40033F2
:10580000BB60044ABB68D36000BF1437BD465DF877
:10581000047B704700ED00E080B400AF044BDB6810
:105820001B0A03F007031846BD465DF8047B70476A
:1058300000ED00E080B483B000AF0346FB7197F940
:105840000730002B0BDBFB7903F01F02074997F9A8
:1058500007305B09012000FA02F241F8232000BF63
:105860000C37BD465DF8047B704700BF00E100E0E7
:1058700080B483B000AF0346FB7197F90730002B6B
:1058800012DBFB7903F01F020A4997F907305B0925
:10589000012000FA02F2203341F82320BFF34F8F9A
:1058A00000BFBFF36F8F00BF00BF0C37BD465DF870
:1058B000047B704700E100E080B483B000AF034692
:1058C0003960FB7197F90730002B0ADB3B68DAB2CD
:1058D0000C4997F907301201D2B20B4483F8002328
:1058E0000AE03B68DAB20849FB7903F00F03043B96
:1058F0001201D2B20B441A7600BF0C37BD465DF8D8
:10590000047B704700E100E000ED00E080B489B066
:1059100000AFF860B9607A60FB6803F00703FB61D1
:10592000FB69C3F10703042B28BF0423BB61FB6998
:105930000433062B02D9FB69033B00E000237B61A3
:105940004FF0FF32BB6902FA03F3DA43BB681A4037
:105950007B699A404FF0FF317B6901FA03F3D94329
:105960007B680B40134318462437BD465DF8047B23
:105970007047000080B582B000AF78607B68013B63
:10598000B3F1807F01D301230FE00A4A7B68013B1A
:1059900053600F214FF0FF30FFF78EFF054B0022C1
:1059A0009A60044B07221A60002318460837BD4648
:1059B00080BD00BF10E000E080B582B000AF78602D
:1059C0007868FFF705FF00BF0837BD4680BD80B58A
:1059D00086B000AF0346B9607A60FB73FFF71CFF27
:1059E00078617A68B9687869FFF790FF024697F99D
:1059F0000F3011461846FFF75FFF00BF1837BD464E
:105A000080BD80B582B000AF0346FB7197F90730C7
:105A10001846FFF70FFF00BF0837BD4680BD80B5B1
:105A200082B000AF0346FB7197F907301846FFF7C5
:105A30001FFF00BF0837BD4680BD80B582B000AFF4
:105A400078607868FFF796FF034618460837BD462A
:105A500080BD80B500AF00F002F800BF80BD80B40B
:105A600000AF00BFBD465DF8047B704780B582B0D3
:105A700000AF78607B68002B01D1012354E07B6884
:105A80005B7FDBB2002B05D17B6800221A77786838
:105A9000FDF7C8FF7B6802225A777B681B79002BD1
:105AA0000CD17B681B68224A5A617B681B689A6824
:105AB0007B681B6822F018029A600CE07B6899688A
:105AC0007B68DB681A46786800F048F90346002BCB
:105AD00001D0012328E07B685B79002B05D17B682E
